:1007E000006F000000010000677E000000000000B4
:1007F00000000000000000000000000000000000F9
:1008000078FFE4B8200118F6D8F99000007F007E48
:1008100007E4F0A3DFFCDEFA75817002293A121FAB
:10082000751225809002217401F02202325074AAC0
:100830007583F5758255A574557583FA7582AAA5D9
:1008400074A57583F5758255A52200022372904028
:100850007FE493FF64326003EF7002002253A87FAD
:100860000080FD021BDD1214F3749112160A741637
:1008700012146BE4F0A37402F0220002324DE70977
:10088000F608DFFA8046E709F208DFFA803E888240
:100890008C83E709F0A3DFFA8032E309F608DFFA78
:1008A0008078E309F208DFFA807088828C83E3099C
:1008B000F0A3DFFA806489828A83E0A3F608DFFA76
:1008C000805889828A83E0A3F208DFFA804C80D2C4
:1008D00080FA80C680D4806980F28033801080A640
:1008E00080EA809A80A880DA80E280CA8033898298
:1008F0008A83ECFAE493A3C8C582C8CCC583CCF044
:10090000A3C8C582C8CCC583CCDFE9DEE7800D89EA
:10091000828A83E493A3F608DFF9ECFAA9F0EDFBF1
:100920002289828A83ECFAE0A3C8C582C8CCC58339
:10093000CCF0A3C8C582C8CCC583CCDFEADEE88092
:10094000DB89828A83E493A3F208DFF980CC88F004
:10095000EF60010E4E60C388F0ED2402B404005035
:10096000B9F582EB2402B4040050AF23234582235F
:100970009008CE73EF8DF0A4A8F0CF8CF0A428CE11
:100980008DF0A42EFE22C2D5EC30E709B2D5E4C327
:100990009DFDE49CFCEE30E715B2D5E4C39FFFE477
:1009A0009EFE120BF2C3E49DFDE49CFC8003120B3F
:1009B000F230D507C3E49FFFE49EFE22C5F0F8A302
:1009C000E028F0C5F0F8E582158270021583E03862
:1009D000F022BB010A89828A83E0F5F0A3E022506D
:1009E0000687F009E71922BBFE07E3F5F009E319D2
:1009F0002289828A83E493F5F074019322BB010774
:100A000089828A830209BC500B09C5F027F7C5F01B
:100A10001937F722BBFE0D09F8E325F0F3C5F019ED
:100A2000E338F322F889828A8374019325F0C5F0B4
:100A3000F8E4933822BB010A89828A83F0E5F0A3A7
:100A4000F0225006F709A7F01922BBFE06F3E5F0E5
:100A500009F3192275F008758200EF2FFFEE33FEBF
:100A6000CD33CDCC33CCC58233C5829BED9AEC9986
:100A7000E58298400CF582EE9BFEED9AFDEC99FC28
:100A80000FD5F0D6E4CEFBE4CDFAE4CCF9A882226F
:100A9000B800C1B90059BA002DEC8BF084CFCECD8F
:100AA000FCE5F0CBF97818EF2FFFEE33FEED33FDC8
:100AB000EC33FCEB33FB10D703994004EB99FB0FAD
:100AC000D8E5E4F9FA227818EF2FFFEE33FEED3384
:100AD000FDEC33FCC933C910D7059BE99A4007ECFC
:100AE0009BFCE99AF90FD8E0E4C9FAE4CCFB227543
:100AF000F010EF2FFFEE33FEED33FDCC33CCC833D7
:100B0000C810D7079BEC9AE899400AED9BFDEC9A38
:100B1000FCE899F80FD5F0DAE4CDFBE4CCFAE4C8B0
:100B2000F922EB9FF5F0EA9E42F0E99D42F0EC6479
:100B300080C864809845F022EB9FF5F0EA9E42F071
:100B4000E99D42F0E89C45F022E8600FECC313FCFD
:100B5000ED13FDEE13FEEF13FFD8F122ECF0A3ED41
:100B6000F0A3EEF0A3EFF022A8828583F0D083D02B
:100B700082120B7F120B7F120B7F120B7FE473E448
:100B800093A3C583C5F0C583C8C582C8F0A3C58338
:100B9000C5F0C583C8C582C822EC8EF0A4CCC5F0D0
:100BA000CCCDF8EFA4CEC5F02DFDE43CFCE8A42E9E
:100BB000C8C5F03DFDE43CFCEFA4FFE5F028FEE4F1
:100BC0003DFDE43CFC22EF4E6012EF60010EEDBBF8
:100BD000010B89828A83F0A3DFFCDEFA2289F050C0
:100BE00007F709DFFCA9F022BBFEFCF309DFFCA933
:100BF000F022BC000BBE0029EF8DF084FFADF02287
:100C0000E4CCF875F008EF2FFFEE33FEEC33FCEE8A
:100C10009DEC984005FCEE9DFE0FD5F0E9E4CEFD7D
:100C200022EDF8F5F0EE8420D21CFEADF075F00850
:100C3000EF2FFFED33FD4007985006D5F0F222C3A9
:100C400098FD0FD5F0EA22208A0302100A900224B0
:100C5000E07002A3E0600302100A900222E070023A
:100C6000A3E0600302100A900171E07002A3E0604B
:100C70000302100A12157D600302100A900134E08D
:100C8000703090011F1213BEFFAEF090010D1213D1
:100C9000BED39FE5F09E400302100A1214D3E490E5
:100CA000017DF0A3F0121637900228121658F56D48
:100CB0008003756D00756E1EE4F5B2F5BA90018182
:100CC000E0F555A3E0F556C209758D20438D2075DA
:100CD0008D8043AA08D2AF758B02758EAF20062493
:100CE00012157D701F200C1CE5DB20E217758AC4ED
:100CF000200C0DE5DB20E20875870300000080066C
:100D0000D2098002D209758B11758A5053AAF7D384
:100D1000900223E09490900222E09401400EA3E020
:100D20002470F0900222E034FEF08007E49002226A
:100D3000F0A3F0D390022FE0949090022EE0940163
:100D4000400EA3E02470F090022EE034FEF0800705
:100D5000E490022EF0A3F012306F900055E075F091
:100D600006A4902EC3F0A3E4F0A3F0121429539923
:100D70007F1208661214FD902EC0E030E2F9902E2A
:100D8000C0E4F0902E02E0F56FA3E0F57043890215
:100D900012142F4380021214FA902EC0E030E2F9B0
:100DA00012166CF522A3E0F523E5702527FFE56F09
:100DB0003526FEC3EF9523F525EE9522F524121571
:100DC000E6E5259FE5249E40048E248F25902EC4C1
:100DD000E4F0439980900167E524F0A3E525F0C392
:100DE000E5569525FFE5559524FE12322E8E578F38
:100DF000581216AB4003020FE0AE24AF257C007DF5
:100E000010120B991216B5AF6CAE6BAD6AAC69904F
:100E100002D5121400FBD3120B389002D5401712E2
:100E20001538956CFFEE956BFEED956AFDEC9569B6
:100E3000FC1216B58007120B6800000000E47F600A
:100E40007EEAFDFC9002D5121400FBD3120B384051
:100E50000A9002D5120B680000EA601213BB7D09EC
:100E60001215A29002D51214007B0A12144A12160F
:100E7000B5900134E07042AE55AF56FC7D09120BBF
:100E800099C8ECC8C9EDC9CAEECACBEFCBE4FCFDEA
:100E9000EB2525FFEA352412149AE47B0A12145636
:100EA0008E558F569002D51213CC12146512152A46
:100EB0001213D6121465020FE012152A1213D6125D
:100EC00014659001101213BEFFAEF09002D51213FC
:100ED000FDFBD3120B385003020FF01213AA1215A8
:100EE00066FE1215FE4003020FF090010D1213BEB4
:100EF000FFAEF07C007D02120B99C8ECC8EDC0E09B
:100F0000EEC0E0EFC0E01213AA121566FEE4FCFD8D
:100F1000D0E0FBD0E0FAD0E0F9EB2FFFEA3E12146C
:100F20009AE47B0312145690010D1213D61214E2A8
:100F300090010D1213BED39430E5F09475400874FF
:100F40007575F030120A3590018BE0605A90018F70
:100F50001214BD9400EE9400404D90010D1213BE8A
:100F6000121566FE12322E9002D9EEF0A3EFF09029
:100F7000010D1213BE12141D95F050101215D94018
:100F80000B1213D3F9E475F0051209FD90010D124F
:100F900013BEFFD312141F95F0400CD31215D94085
:100FA000061213D3121691900185E0D394004030BD
:100FB0001215CC502B9001101213BEFF9001ADE022
:100FC000245A12156D1213BBD39FE5F09E400E12EA
:100FD00013D375F0281216A1242812151712169A89
:100FE00020090D1216AB500812157D7003020CC9B2
:100FF00090018AE0041213DEE490016312143A9027
:10100000013504F09002261214EC221213AAFDAC52
:10101000F0D39FEC9E40329001101213BE12167650
:10102000D3EF9430EE9475400C9002D77475F0A312
:101030007430F0800D1213B51215669002D7F0A32C
:10104000EFF0E49001A50210BA1213BBFFAEF090CE
:1010500001101213BEFDACF0C39FFFEC9EFED3EF58
:101060009410EE9427400C9002D77427F0A37410CC
:10107000F080121213BBFFC3ED9FFEEC95F09002BF
:10108000D7F0A3CEF09002D7E0FFA3E09001A5CF68
:10109000F0A3EFF0300018D3E0942C9001A5E09479
:1010A0000140139001A77427F0A37410F08007E4A7
:1010B0009001A7F0A3F0E49002D7F0A3F0900134E0
:1010C000E0605F12145CC39488EE648094935006D1
:1010D0009001847420F0D31215B6401D90010412C3
:1010E00014BD9002D8E09F9002D7E09E400B900282
:1010F00028E4F0A37464F0801BD3900229E09400EC
:10110000900228E09400400C90010D1213BE900252
:10111000D712154AD20B90022E7403F0A374E8F094
:1011200080179001847420F090022C7401F0A37455
:10113000F4F07A00794A1213F212145CD31215B744
:10114000500302138090010D1213D61214E2C390C3
:1011500002D8E094C89002D7E0648094805007E4FD
:10116000900188F0A3F0900188E0FEA3E0FF9002D8
:10117000D8E02FF09002D7E03EF0E0FEA3E0FF12AF
:10118000168AE47BB87A88F9F8C3120B22500A90C9
:1011900002D77488F0A374B8F0D390022BE09400C7
:1011A00090022AE09400500790001BE0B42018122F
:1011B000145CC39496EE64809480500B1215B64074
:1011C0002F7C007D0A801E300026900134E07020C4
:1011D0009001ACE0FCA3E0FD12145CC39DEE9C50BA
:1011E0000F7C007D641209869002D7EEF0A3EFF029
:1011F000900134E0700302135A90022CE07002A3B5
:10120000E0600302135A12145C12168AE54D2FF5A2
:101210004DE54C3EF54CE54B3DF54BE54A3CF54A7A
:10122000054FE54F7002054EC3E55394F4E5529423
:101230000150030212FCAE4EAF4FCBEFCB1214A8FD
:10124000AF4DAE4CAD4BAC4A120A909002D9EEF0C5
:10125000A3EFF0C3E5519FFFE5509EFE12322E90A2
:1012600002DBEEF0A3EFF0D39450EE94005006E5CD
:10127000514550700C9002D9E0F550A3E0F5518033
:101280006AD39002DAE095519002D9E09550402956
:101290001214BA9450EE94005051D3EF943CEE9453
:1012A000004004740A800BD3EF9428EE9400403B76
:1012B00074052551F551E4802E1214BA9450EE9421
:1012C000005028D3EF943CEE9400400A74F6255168
:1012D000F55174FF8011D3EF9428EE9400400C7404
:1012E000FB2551F55174FF3550F550E4F54DF54CA3
:1012F000F54BF54AF54EF54FF552F553D3E55194BC
:1013000000E5509400402A9002D8E09551FF9002E9
:10131000D7E09550FE12322E121680500812162B6E
:10132000E4F554800CE554C39405500512162B05C2
:1013300054E5DB20E23D9001161213BE7D0F12151D
:10134000A29002D712140B12168AEB7B1012144AC9
:101350009001161213D6F9EE8014E5DB20E214900A
:1013600002D7E0F9A3E0FF9001161213D6C98FF05F
:10137000120A359001161213BE24A8FFE5F0801D55
:1013800090010D1213D61215439001161213D612A6
:1013900015439002D8E024A8FF9002D7E03461F909
:1013A0009001131213D612146522900110E0FBA3D2
:1013B000E0FAA3E0F91209D2FFAEF090010AE0FBD7
:1013C000A3E0FAA3E0F90209D2900136A3A3E0F961
:1013D000A3E0FF900110E0FBA3E0FAA3E022F07E7F
:1013E000007F057D007B007A007959120BC67A00D8
:1013F000795E7E007F0B7D007B00020BC6E4FCFD66
:10140000E0F8A3E0F9A3E0FAA3E022C8ECC8C9ED34
:10141000C9CAEECACBEFCBE0FEA3E0FF22FFC39028
:101420000190E09F90018FE02243AB025389FD536E
:1014300095FD5396FD2290018DE4F0A3F0A3F0A357
:10144000F022A3F0A37401F0A3222FFFEA3EFEE9ED
:101450003DFDE83CFCE4FAF9F8020A909002D7E07E
:10146000FEA3E0FF22C98FF0020A35902ECAF09049
:101470002EE7740AF0902EEAF0902EE87404F090B3
:101480002EEBF0902EC422E50A25E02428F8E6FE93
:1014900008E622F9EB2FFFEA35F0FEED39FDEC38D6
:1014A000FC22A3E0FEA3E0FBCAEECAE4F9F8229016
:1014B00002247402F0A37458F0229002DBE0FEA331
:1014C000E0FFD322902E427D14E0FEA3E0FF7C00DB
:1014D0000209747F087A0179367E007D007B010263
:1014E0000BC6F9EE8FF0020A359001ACE4F0A3745C
:1014F000C8F022902EC07402F02212321A902EC030
:101500007419F022E50D25E02475F582E43401F527
:1015100083E0FEA3E0FF22F0900186E03400F0E0DB
:10152000FFA3E0A3CFF0A3EFF0229002D5A3A3E0A6
:10153000F9A3E0FF90010A22E0FCA3E0FDA3E0FE96
:10154000A3E022F9E4F5F0020A35FFE5F0F0A3EF9D
:10155000F022FEE433FDE433FC780122E4F50EF5DD
:101560000DF50CF50B22C39FFFE5F09E22FD9001C7
:10157000ACE03400FCED2FFFEC35F0FE2290001BB8
:10158000E0642022D3EF9428EE64809480229002BD
:10159000267402F0A374BCF022900108E0FCA3E0E2
:1015A000FD22FFAEF07C00020B99AB0EAA0DA90C38
:1015B000A80BD3020B38EF9400EE64809480229045
:1015C00002D8E0940A9002D7E0940022900187E0CC
:1015D00094DC900186E09405229002DAE0940A906F
:1015E00002D9E0940022E5272488FFE5263413FE83
:1015F000D322900108E0FFA3E090017BCF22D3909B
:1016000001ADE09F9001ACE09E22902EC2F0902EA2
:10161000C77401F022900167E564F0A3E565F0224C
:1016200025E02428F8A60F08A610229002D7E5503E
:10163000F0A3E551F022E490022AF0A3F0229001F9
:1016400004E4F0A37496F022F9746175F0A8020A1C
:101650003590003A7410F022F0A3F0900230F0A31D
:10166000F022FEEF2401FFE43EC31322902EC0E4DB
:10167000F0902E1EE022FFC3ED9FFFEC95F0FE22BE
:10168000C3EF9450EE6480948022EE3395E0FDFC2D
:1016900022F974FF75F0FB0209FD9001857464F076
:1016A00022F9E41209FD900187E022C3E558956E06
:1016B000E557956D229002D5020B5C1214F3902E23
:1016C000C4E4F0A3F053997FF50BF50CF50DF50E7E
:1016D000F50A1208661214291214FD902EC0E0308B
:1016E000E2F9902EC0E4F043890212142F438002E5
:1016F000902E02E0FEA3E0250CF50CEE350BF50B69
:101700001214FA902EC0E030E2F912166CFEA3E03B
:10171000250EF50EEE350DF50D050AE50AC3940606
:1017200040B0439980902EC5E4F0E527240CFFE5F6
:101730002634FEFED3EF950CEE950B40159001710B
:10174000E07002A3E0701290017104F0A374F4F051
:101750008007E4900171F0A3F09001631214BD942E
:1017600000EE94004031CBEFCBCAEECAEB250EFF62
:10177000EA350D121552120B498E0D8F0EA3E0FEA5
:10178000A3E0FBCAEECAEB250CFFEA350B1215529B
:10179000120B498E0B8F0CE50C2527FFE50B352628
:1017A000FEC3EF950EF510EE950DF50F1215E6E55B
:1017B000109FE50F9E40048E0F8F10900161E50F82
:1017C000F0A3E510F0A3E50DF0A3E50EF0A3E50B03
:1017D000F0A3E50CF0D390016EE0940090016DE071
:1017E00094004074900134E0600F90010D1213BE1C
:1017F000C394A0E5F0940F5009E490016BF0A3F0BE
:101800008056D390016CE0940090016BE09400400E
:101810003390016DE0FEA3E0FF12199ACAEECACB25
:10182000EFCB90016BE0FEA3E0FF7C007D0312098B
:1018300074EB2FFFEA3EFEEF7802CEC313CE13D82F
:10184000F9FF800C90016DE0FEA3E0FFC312199A2E
:1018500090016BEEF0A3EFF0D390016CE0940A904E
:10186000016BE0940090016F40097428F0A3744666
:10187000F080077407F0A3740FF0900161E0FFA3FC
:10188000E090016DCFF0A3EFF0AF10AE0F1227097B
:10189000900167EEF0A3EFF090001BE0B42003127C
:1018A00013EE900167E0FEA3E0FFE4FCFDE5612F8D
:1018B000F561E5603EF560ED355FF55FEC355EF5B1
:1018C0005E0563E56370020562C3E56794E8E5665B
:1018D0009403402AAE62AF63CBEFCB1214A8AF6182
:1018E000AE60AD5FAC5E120A908E648F65E4F56108
:1018F000F560F55FF55EF562F563F566F567D3E5CE
:10190000659400E56494004074900168E09565FF7B
:10191000900167E09564FE9002DBF0A3EFF0900188
:101920006FE0FDFBC3E49BFBE49400FAD3EF9BEA7A
:101930006480F8EE648098401BEDFF9002DCE09F2D
:101940007480F89002DBE06480985008121615E469
:10195000F56880299002DBE0FEA3E0FF12322E90B2
:101960000170E0FDD3EF9D7480F86E9840037568B8
:1019700003E568C3940350051216150568900167C6
:10198000E0F548A3E0F54978287C007D007B007AEB
:1019900000792A7E007F2002094E900162E09FFFBD
:1019A000900161E09EFE12322E22900193121400EB
:1019B000FBE9C0E0EAC0E0EBC0E09001251213BEF5
:1019C000FFE4FCFDD0E0FBD0E0FAD0E012149390ED
:1019D0000193120B5C900198E004F070069001975F
:1019E000E004F0900199E07002A3E06003021BDCC8
:1019F000900193121538FFEEC0E0EFC0E01214A280
:101A0000D0E0FFD0E0FE120A90900193120B5C90A0
:101A10000193A3A3E0FFA3E0900191CFF0A3EFF027
:101A2000A3120B6800000000E4900197F0A3F0A35C
:101A3000F0A374C8F0900222E07002A3E0600302F9
:101A40001BDC90019BE07002A3E06003021BDC90B2
:101A50000134E07003021B0390018DE0FEA3E0FF60
:101A60004E7022900191E0FDA3E090018DCDF0A396
:101A7000EDF090010D1213BEFD90018FE5F0F0A383
:101A8000EDF0021B0A900191E0FCA3E0FDC3EF9D85
:101A9000FFEE9CFE12322E90019D1213D61214E21C
:101AA00090018BE0702690019D1213BEC3940DE54A
:101AB000F09400500F90010D1213BEFF90018F1291
:101AC000154B801E90018B7401F0801690019D12C1
:101AD00013BEC39402E5F09400500712143690012F
:101AE0008BF09001911214BD90018EE09F90018DBA
:101AF000E09E4007E490018CF0800F90018C74010F
:101B0000F0800712143690018BF090018BE0700387
:101B1000021BDC90018F1214BD9400EE9400500360
:101B2000021BDC90010D1213BE121566FE12322E3E
:101B30009002D7EEF0A3EFF0A3E4F0A37464F0906A
:101B4000010D1213BEFFAEF0D312141F9E4015906C
:101B500002D9E0FCA3E0FDD39002D8E09D9002D72B
:101B6000E09C501A12141E9E503A9002D9E0FEA337
:101B7000E0FF9002D8E09F9002D7E09E4026E490DC
:101B8000018BF090018DF0A3F090010D1213BE12A5
:101B9000141D95F090019B7401F0A3742CF0E49057
:101BA000018CF02290010D1213BEFFD312141F9569
:101BB000F0400CD31215BF40061213D312169190A9
:101BC000010D1213BE12141D95F050101215BF40D6
:101BD0000B1213D3F9E475F0051209FD22C0E0C021
:101BE00083C082C0D0D2AF900235E004F0D390021F
:101BF00023E09400900222E09400400CA3E024FF34
:101C0000F0900222E034FFF0D3900225E09400909F
:101C10000224E09400400CA3E024FFF0900224E0B2
:101C200034FFF0D3900227E09400900226E0940065
:101C3000400CA3E024FFF0900226E034FFF0D390A4
:101C40000229E09400900228E09400400CA3E024D4
:101C5000FFF0900228E034FFF0D390022BE09400D4
:101C600090022AE09400400CA3E024FFF090022AA6
:101C7000E034FFF0D3900233E09400900232E0941D
:101C800000400CA3E024FFF0900232E034FFF0D3D8
:101C9000900231E09400900230E09400400CA3E008
:101CA00024FFF0900230E034FFF0D390022DE09456
:101CB0000090022CE09400400CA3E024FFF090027E
:101CC0002CE034FFF0900185E0D394014003E01450
:101CD000F0900184E0D394004003E014F0C3E56782
:101CE00094E8E566940350080567E56770020566A9
:101CF000C3E55394F4E552940150080553E553703D
:101D0000020552D390019AE09400900199E094006A
:101D1000400CA3E024FFF0900199E034FFF0D39051
:101D2000019CE0940090019BE09400400CA3E0240F
:101D3000FFF090019BE034FFF0D3900172E094013A
:101D4000900171E09400400CA3E024FFF090017139
:101D5000E034FFF0D390022FE0940090022EE09444
:101D600000400CA3E024FFF090022EE034FFF0D3FB
:101D70009001A8E094009001A7E09400400CA3E03B
:101D800024FFF09001A7E034FFF0D39001AFE0947E
:101D9000019001AEE09400400CA3E024FFF090011C
:101DA000AEE034FFF0D0D0D082D083D0E0329001CA
:101DB0007DE0FEA3E0FFC39404EE9400502A1215C8
:101DC00099EF25E0FFEE33FE74752FF58274013E26
:101DD000F583ECF0A3EDF090017EE004F070069046
:101DE000017DE004F0021F17750D01121504E50DC9
:101DF00025E02473F582E43401F583EEF0A3EFF0DF
:101E0000050DE50DB404E4900134E07003021EC238
:101E10009001101213BEFFAEF0121599D39FEC9EE5
:101E20005003021F10ED9FFFEC9EFED3EF94F4EEE3
:101E300094015003021F10A31213BE1216769002D3
:101E4000DAF0A3EFF012322E121680505DE4900209
:101E5000DCF0A3F09002DAE0FEA3E0FF12322E12D3
:101E600015844025D39002DBE094009002DAE06410
:101E70008094809002DC4008E4F0A3740AF08010A3
:101E800074FFF0A374F6F08007E49002DCF0A3F096
:101E90001213BBFF9002DDE02FFE9002DCE035F074
:101EA00090017BF0A3CEF0021F171215F2F0A3EF02
:101EB000F09001AAE004F070069001A9E004F0029D
:101EC0001F171213BBFF121599C3EF9DFFE5F09C7E
:101ED000FE12322EC312158550369001101213BE19
:101EE000FFC3900109E09FFF900108E095F0FE120A
:101EF000322EC3EF9414EE6480948050059001104C
:101F0000800390010A1213BEFF90017BE5F080036D
:101F10001215F2F0A3EFF0E4F50CF50BF50AF50954
:101F2000F50DD390017EE0950D90017DE094004089
:101F30001E121504E4FCFDE50C2FF50CE50B3EF537
:101F40000BED350AF50AEC3509F509050D80D3AF1F
:101F50000CAE0BAD0AAC09EEC0E0EFC0E090017D25
:101F60001214A3D0E0FFD0E0FE120A908F0C8E0B6B
:101F70008D0A8C09227E007FFF7D007B017A00792B
:101F800004120BC69002E97400F0A37404F09001EF
:101F9000D57401F0A37400F0A374B8F09001DB7461
:101FA00001F0A37400F074AC12305C7400F0A37400
:101FB00094F09001D87401F0A37400F0A374C6F0FB
:101FC0009001E17401F0A37400F074D212305C74DB
:101FD00000F0A3741F12305D7401F0A37402F0903E
:101FE0002DE0E493FF9002E9E0FCA3E0FDF5828C94
:101FF00083A3EFF0900002E0FFED2404123036904E
:102000000001E0FFED2405123036900003E0FFED03
:102010002406123036902DE2E493FFED24121230A4
:1020200036902DE3E493FFED24141230369001EA4C
:102030007401F0A37400F0A3743CF0E4FF75F002A7
:10204000EFA42401F582E5F0342EF583E493FE74C9
:10205000542FF582E43400F583EEF0EF25E0242DD3
:10206000F582E4342EF583E493FE123064EEF01230
:102070003064E0FEEF25E0242CF582E4342EF58375
:10208000E49324C0F582E4342EF583EEF00FEFB430
:1020900016AB902F56E0900058F0902F56E090002D
:1020A0006EF0902F56E0900059F0902F56E090007F
:1020B0006FF09000FF7401F09000FEF090003A7411
:1020C00010F090001BF0900028F0A37420F0900214
:1020D000227413F0A37488F022900134E060761229
:1020E00014D312158E900184E07025A3E070219026
:1020F000010D1213BED39488E5F0941340129001A1
:1021000083E0FF04F0EFD39428400A12169A80056A
:10211000E4900183F0900185E06401600302223ABB
:10212000C31215CC400302223A9001101213BEFFD5
:102130009001ADE0243212156D1213BBD39FE5F070
:102140009E400E1213D375F00A1216A1240A12151E
:102150001712169A22E490018512143AA3F0900106
:1021600083F0900136121400FBE9C0E0EAC0E0EB16
:10217000C0E01213BBFFE4FCFDD0E0FBD0E0FAD0DE
:10218000E0121493900136120B5C90013BE004F0D6
:10219000700690013AE004F0900226E07002A3E09D
:1021A000600302223A900136121538FFEEC0E0EFCC
:1021B000C0E01214A2D0E0FFD0E0FE120A9090011D
:1021C00036120B5C9001101213BE2432FFE435F07E
:1021D000FE9001361213FDFBD3120B3840399002EA
:1021E00022E07002A3E0702F200B2C90013DE00450
:1021F000F0700690013CE004F0D390013DE09405BE
:1022000090013CE09400401E1213C9121465E49042
:10221000013CF0A3F0800F1213C9121465E4900181
:102220003CF0A3F0C20B900136120B6800000000D6
:10223000E490013AF0A3F012158E2212155CF51508
:10224000F516852811852912852813852914F50A84
:10225000121487FFD3E5149FE5139E40078E138F5A
:1022600014850A16C3E5129FE5119E50078E118F43
:1022700012850A15050AE50AB410D5E4F50FF51024
:10228000F50AE516650A602EE515650A6028E51071
:10229000450F7010E50A25E02428F8E6F50F08E65A
:1022A000F51080121214872510FFE50F3E121662FA
:1022B000F50FEF13F510050AE50AB410C59001817A
:1022C000E50FF0A3E510F0E516C3940D5005E516F3
:1022D000121620E515C3940D5005E51512162012AF
:1022E000155CF50A121487FFC3E5109FFFE50F9EEA
:1022F000FE12322E121584400FE4FCFDE50E25106F
:10230000F50EE50D350F800F121487FFE4FCFDE597
:102310000E2FF50EE50D3EF50DED350CF50CEC35FB
:102320000BF50B050AE50AC3941040B8AF6CAE6B11
:10233000AD6AAC691215AA401AE50E956CF50EE56A
:102340000D956BF50DE50C956AF50CE50B9569F5AA
:102350000B800312155CE47F607EEAFDFC1215AA77
:10236000400BE4750E60750DEAF50CF50BAE0DAF84
:102370000E22C0E0C083C082C0D0ECC0E0EDC0E05F
:10238000EEC0E0EFC0E0D2AFE5DB30E419D20CC222
:1023900008E5DB30E102802E9002E8E5DFF09002F4
:1023A000EBE4F0022476E5DB30E50FD206300805D9
:1023B000C208022476C20C022476C208E5DB30E1B2
:1023C00040E5DB30E0109002ECE0FF04F012320454
:1023D000E0F5DF0224769002ECE0FFB40819208AD1
:1023E00016D28A90024A7401F09002E9E0FCA3E060
:1023F000240712320AE4F0EF641A707AD20702243A
:10240000769002EBE0700EA3E5DFF09002EB740132
:10241000F0D20880619002ECE0902DA893FFB4FF09
:10242000089002E8E5DFF08047EF640F7029900222
:10243000ECE0FFA3E0FCA3E0FD123209E0540FF052
:102440009002ECE0FF04F0ED123209E0FFE5DF540A
:10245000F0FEEF4EF0801F9002ECE0FF123204E538
:10246000DFF0EFB4240A9002247401F0A374F4F0B6
:102470009002ECE004F075DBFFD0E0FFD0E0FED08E
:10248000E0FDD0E0FCD0D0D082D083D0E03290020A
:10249000DBEFF09002E0E4F0A374FFF0E4A3F0A31C
:1024A000F0A304F0A374FFF0902EC07402F0902EFD
:1024B000C37408F0E49002DCF0A3F09002DCE0FECC
:1024C000A3E0FFC39409EE9400400302257DEF943E
:1024D00007EE940040067E007F0180199002DCA385
:1024E000E004FFE47E01C8EFC8088006CEA2E7132F
:1024F000CE13D8F8FF9002DEEEF0A3EFF0902EC0DE
:102500007419F0902EC0E030E2F99002DBE0FF7524
:10251000F002A4240012304BE0FCA3E0FD902EC09A
:102520007402F0D3ED94FFEC940F40179002DEE0BC
:10253000FCA3E0FD75F002EF123048EC8DF01209BB
:10254000BC80299002DBE075F002123048C083C0E5
:1025500082E0FEA3E0FF9002DEE0FCA3E0FDC3EF1B
:102560009DFFEE9CD082D083F0A3EFF09002DDE0DF
:1025700004F070069002DCE004F00224BB7F00222D
:102580007FA37A0179081214D990010A7401F0A38B
:102590007400F074441214427400F0744612144231
:1025A0007400F0A374481214437400F0A374321240
:1025B00014437400F0A3742E1214437400F0A37437
:1025C0002CF09001257401F0A37400F0A37426F0A0
:1025D00090019D7401F0A37400F0A374841214435D
:1025E0007400F0A37486F09001287401F0A37400C5
:1025F000F0A3741C1214437400F0A37422F0900131
:102600001C7401F0A37400F0A37436121443740018
:10261000F0A3742A1214437400F0A37438F0121457
:10262000E990011C1213D6F9E475F0C8120A35902E
:10263000011F1213D6F9E475F064120A3512163E22
:102640009001221213D6F9E475F096020A35900231
:10265000D7EEF0A3EF1213DE9002D7E07002A3E0F2
:10266000600312286E122BFDE490017DF0A3F07F31
:10267000101230A81214AFA31215919001851214F4
:1026800039A3F0900108E0F9A3E0FFA31213D612DA
:10269000146590010D1213D61215439001131213F5
:1026A000D61216489001161213D61215439001192E
:1026B0001213D6121648121651E4900134F090010C
:1026C00036120B6800000000E490013A12143A90B0
:1026D00001081213CE121465E4900135F090023215
:1026E00012165890022EF0A3F0FE7F12FD7B017AA5
:1026F00001798B120BC69001251213BE9001911225
:10270000154A9001991214EC229002DDEEF0A3EF2D
:10271000F0E55C455B700C9002DDE0F55BA3E0F555
:102720005C80169002DEE0255CFF9002DDE0355B08
:10273000121662F55BEF13F55C055DE55DD3940A57
:10274000400D855B59855C5AE4F55BF55CF55DD31E
:10275000E55A9400E5599400405D9002DEE0955AF8
:10276000FF9002DDE09559FE12322EC3EF940AEE7F
:1027700064809480AE59AF5A501C7C007D03120BCC
:10278000999002DD12140BE4FCFDEB2FFFEA3E12E0
:10279000149A78028016CBEFCBCAEECA9002DDE025
:1027A000FEA3E0FFEB2FFFEA3E121552120B4990F9
:1027B00002DDEEF0A3EFF09002DDE0FEA3E0FF22E9
:1027C000D3900223E09400900222E09400400302A0
:1027D000286D3000299001A7E07002A3E09001ACC1
:1027E0006009740BF0A374B8F080077405F0A3744B
:1027F000DCF09001047405F0A37414F08006121448
:10280000E912163E90010D1213BEFFAEF01215FE36
:102810004013900134E0601ED3900105E09F9001C9
:1028200004E09E501190022AE07002A3E07027900D
:10283000013404F0802090001BE0B420051216360D
:10284000800690022A1214ECE4900134F0900228E1
:10285000F0A3F0121651900134E06011900028E0CE
:1028600090003AB410047410F0227420F0227F011A
:10287000122D5F902E42E0FEA3E024B1FFEE34FE65
:102880009002D9F0A3EFF012142953997F12306F00
:102890001208661214F3902EC314F01214FD902E39
:1028A000C0E030E2F9902EC0E4F0902E027D1812C4
:1028B00014C98E268F277D10120B99EF24E0F56C3A
:1028C000EE34B1F56BED34FFF56AEC34FFF5694396
:1028D000890212142F438002439980902EC5E4F0A0
:1028E000900107E0900021F01214C4EF2490FFEE55
:1028F000341AF99001281213D6C98FF0020A350252
:102900003103E493A3F8E493A34003F68001F208B3
:10291000DFF48029E493A3F85407240CC8C333C41C
:10292000540F4420C8834004F456800146F6DFE487
:10293000800B0102040810204080902A6FE47E0181
:102940009360BCA3FF543F30E509541FFEE493A3FA
:1029500060010ECF54C025E060A840B8E493A3FA0C
:10296000E493A3F8E493A3C8C582C8CAC583CAF098
:10297000A3C8C582C8CAC583CADFE9DEE780BE90A6
:10298000023FE014601B1460432402705D90024912
:10299000E0B4010A90023F1229EBD205D200C20333
:1029A000227F02122FF4EF60077F0212323AC20533
:1029B000900249E0703490023F7402F0D203C205E5
:1029C000C2007F0312323A7F03022D0E7F03122FC3
:1029D000F4EF60167F0312323A900249E090023F12
:1029E0007003F080031229EBC203227401F07F020E
:1029F00012323A7F02122D0E22CDEFCD43AD10538D
:102A000099EF439A10539BEF902EC07402F0147EFE
:102A100000C8EDC8088005C333CE33CED8F9FF9087
:102A20002EC4EEF0A3EFF0902EC8EEF0A3EFF074FA
:102A3000101231DA902EC0E030E2F9902EC0E4F0AE
:102A40007402F074201231DA902EC0E030E2F99076
:102A50002E00E0FEA3E0FF902EC4E4F0A3F0902E41
:102A6000C0F0439910539AEF539BEF5390EF22C15C
:102A70000C4102430041024400410240004102482F
:102A8000004201AE03E841024A00C102C101C10493
:102A90004102490041023F00C103C100C10541029A
:102AA000EB004102EC004202E60000C106C108C191
:102AB000074102E8104101030041010710C10BC1A9
:102AC0000A4101AB00022600000469000000004139
:102AD00001061041024B00009001AEE07004A3E03B
:102AE0006401701190024AE07004D28A04F0E4900C
:102AF00001AEF0A3F090003AE0FC900106E06C60BB
:102B00003D90003AE0FE900106F090000BE090024C
:102B100048F0540FF0EEB42005E04420800AECB4F5
:102B2000100B900248E04410F090000BF0C28AE4D1
:102B300090024AF09001AE7403F0A374E8F0229082
:102B400002D57408F0A3E4F0A3743FF0A374DFF09F
:102B5000E4FDFCF9758A10538AEF009002D5E0FE7F
:102B6000A3E02DF582EE3CF583E493FF69F90DBDFA
:102B700000010CBC37E5BDDFE29002D7123211E450
:102B800093699002E97009123211A37401F0800672
:102B9000123211A3E4F0758A50538AEF0022200A02
:102BA00006200303300509E4FFFE12264EC20A2266
:102BB000900230E07002A3E0600512157D703A20AB
:102BC0000003122F6F122BFD7F011230A8121DAED1
:102BD0009002D5EEF0A3EFF07B017A0279D5122EA8
:102BE000A09002D512152F1213D612146512100BD5
:102BF0001227C01219AA1220D9122AD822438902F8
:102C00005395FD5396FD4380021231A37F0C122988
:102C1000F9CAEECACBEFCB7F0C1229F9EF2BFFEEEE
:102C20003A9002DAF0A3EFF0900125E0FBA3E0FA7E
:102C3000A3E0F91209D245F070051231C6801512D1
:102C400009D2FD1231C6FEEF2DFFEE35F0C313FEA3
:102C5000EF13FFEE8FF0120A3522900221E024FEDE
:102C600060131460231460272403704990022174B8
:102C700002F01232497F017E0012264E900221742A
:102C800003F0E4900240F0229002217404F022123A
:102C9000297F122E5812297F900171E07004A3E061
:102CA0006401700C900171F0A3F09002217402F0A5
:102CB000E4900235F022123054F5828E83A3E0B402
:102CC000AA03122B3F123054FF12303FE0B4100819
:102CD000EF12303FE4F0D20A123054FF241B1230BE
:102CE00041E0700DEF241C123041E0B41003122FAC
:102CF0002C1230542413123041E0FFB4100690021D
:102D0000497401F0EFB42005E4900249F0229002EA
:102D1000D5EFF0E024CC123183E060037F012290F4
:102D200002D5E0FF24CC1231837401F0EF12318B15
:102D3000E493FE740193FFE4FCFD902F60E0F8A3A0
:102D4000E0F9A3E0FAA3E02FFFEA3EFEED39EC380C
:102D50009002D5E0123197EEF0A3EFF07F0022CD84
:102D6000EFCD12142912306FED601C53997F12328F
:102D70001A902E5EE4F0A374FFF07F0F12248E9061
:102D80002EC4E4F043998053997F902E42E4F0A33F
:102D900074FFF01208667F0112248E438902121418
:102DA0002F4380024399802200000000FFFFFFFFB5
:102DB0000000FFFFFFFFFFFFFFFFFF00FF0000001D
:102DC000FFFF000000FFFFFFFFFFFFFF000000000C
:102DD000FFFFFFFFFFFFFFFFFFFF000000000000FD
:102DE0000104AB6FE4FF3006169002E9E0FCA3E0BB
:102DF000F5828C83E0FE54F0FFEE540FF0C2062201
:102E0000029103040A160DA00EA60FFF0C020BFF81
:102E100023F7240625040701270A2A0A28042B047D
:102E200029032C032D082E082F082608021103065B
:102E30000A100D400E800FFF0C020BFF23F4240438
:102E40002504070127102A1028042B0429032C032A
:102E50002D202E202F10262012157D70299001ABD9
:102E6000E070031214AF9001AB7401F0900029E000
:102E7000B42008122B9E120C4780031230D6900209
:102E8000347401F08017E49001ABF0900029E0B4B5
:102E90002003122B9E900234E06002E4F00231E63F
:102EA0009002D7EBF0A3EAF0A3E9F0900224E070DF
:102EB00002A3E07031900135E0602BE4900135F021
:102EC000122BFD1214AF7508017F011230A8121DDC
:102ED000AE9002D71213D61214E20508E508C39487
:102EE0001040E612163622758A50538AEF9000027F
:102EF0007411F09000017422F09000037433F0E438
:102F0000F5AB75AC1DF5ADF5AF7589FF75913F75E6
:102F100099FFF59675931CF59BF595F592F59A53E7
:102F200088FCD28A90024A04F0D20D2212082EE4C4
:102F3000F5F275F30875EEFF75EF3F75EA81F5F66A
:102F400075EB0700E5EC30E7FBE4F5EC9002E9E017
:102F5000FEA3E0FF241BF582E43EF583E5F3F0EFEA
:102F6000241CF582E43EF583E5F2F075EB30223067
:102F7000073FC207902E42E0FFA3E09002D7CFF0B8
:102F8000A3EFF0E4FF122D5F1214C4EF2490FFEEC4
:102F9000341AFE9001281213D61214E21214F39080
:102FA00002D7E0FFA3E0902E42CFF0A3EFF012147F
:102FB000AF22758B11902F647440F0E4FEE4FFEFB4
:102FC00075F003A4245EF582E43402F583E5822ED5
:102FD000F582E43583F583E4F00FEFB40AE10EEEF9
:102FE000B403DA7F099002CCE4F0A3DFFC902F64F5
:102FF0007480F022CBEFCB123180E06036902F60EE
:10300000A3A3E0FEA3E0FFEB123197E0FCA3E0FDF9
:10301000D39FEC9E501DC3EF9DFFEE9CFEEB123143
:103020008BC37401939FE4939E4008123180E4F0B7
:103030007F01227F0022F582E43CF583EFF0222419
:103040001AF582E43EF58322A42440F582E5F034AB
:103050002EF583229002E9E0FEA3E022A3F0A37400
:1030600001F0A322746A2FF582E43400F583221262
:1030700014F3902EC4E4F0A3F0FF74542FF582E40F
:103080003400F583E0FE75F002EFA42400F582E53C
:10309000F0342EF583E49324C0F582E4342EF583D6
:1030A000EEF00FEFB416D3229002DAEFF012306F89
:1030B000E4F5099002DAE0FFE509C39F5007121614
:1030C000BB050980EE902EC0E4F012223B9001086F
:1030D000EEF0A3EFF022E4F5B2F5BA758D20438D42
:1030E00020538D7F53AAF7F58BE5DB20E211200CEE
:1030F0000EE4F58A758703000000758A50D20A75C0
:103100008B112212084E53A87F122EE712081E12AE
:10311000312F43A8801232439000FFE060069002F6
:10312000217401F0122DE4122CB6122C5A80F59065
:1031300002E9E0FFA3E09002EDCFF0A3EFF0E4F5A9
:10314000DA75DA4043DA2075D74075DA5875D90157
:1031500043A90875B80875F8082201F4002800286A
:1031600001F4009603E801F403E81770006403E833
:10317000003202580258012C01F403E8271000C85D
:1031800074CC2BF582E43402F5832225E0246EF51D
:1031900082E43431F5832225E0244CF582E43402C4
:1031A000F58322902EC07402F0902EC77474F090B4
:1031B0002ECD74C0F0A374FFF0A3F0902EC3740161
:1031C000F0902ECAF0229002DBE0C4F8540FC868D9
:1031D000FF9002DAE0C454F04822902EC2F0902E04
:1031E000C0E04419F022E5B230E005E5AA20E01382
:1031F000E4900236F075B28E75B6F9F5B743B201B8
:1032000043AA0122A3E0FCA3E02FF582E43CF5836E
:1032100022E0FEA3E0F5828E83221214F3741212D0
:10322000160A741412146B7480F0A3E4F022EE30CA
:10323000E707C3E49FFFE49EFE2274CC2F12318384
:10324000E4F022123253022FB212165122D2AF32C0
:10325000D2AF320231E600000000000000000000A2
:10326000000000000000000000000000000000005E
:10327000000000000000000000000000000000004E
:10328000000000000000000000000000000000003E
:10329000000000000000000000000000000000002E
:103FD0000000000000000000000000000000005A87
:103FE00000000000000000000000000000000000D1
:103FF00000000000000000000000000000000000C1
:00000001FF
